:020000040000FA
:10000000B03B0020C5010000452A0000212400006B
:1000100000000000000000000000000000000000E0
:10002000000000000000000000000000613D000032
:1000300000000000000000000D2F0000FD41000046
:10004000432A0000412A000009480000471E000022
:10005000491E0000D31E000097450000994500008E
:1000600053360000451E0000391E00000B2F000013
:10007000ED4C00000F44000069430000B94300004C
:100080000D440000371E00002D21000057360000EF
:10009000553600003B1E00003D1E00003F1E0000C4
:1000A000411E00000000000000000000431E000090
:1000B0002F210000312100003321000035210000F4
:1000C00000F002F800F053F80CA030C808382418EB
:1000D0002D18A246671EAB4654465D46AC4201D180
:1000E00000F045F87E460F3E0FCCB646012633425F
:1000F00000D0FB1AA246AB463343184768B2000053
:1001000088B200000023002400250026103A01D305
:1001100078C1FBD8520700D330C100D50B607047BF
:1001200010B5662902D109F061FE10BD692902D11E
:1001300000F0C0F910BD642902D100F0BBF910BD78
:10014000732902D101F020F910BD002010BD1FB5A8
:100150000098019900F04FFE00F030FE04000020EE
:10016000002109F0D1FCE0601FBD10B510BD01F009
:100170008CFD1146FFF7EBFF06F054FD01F0A4FDE6
:1001800003B4FFF7F2FF03BC01F004FE70B50546AF
:100190000C46164602E00FCC0FC5103E102EFAD2C8
:1001A000082E02D303CC03C5083E042E07D301CC8E
:1001B00001C5361F03E021782970641C6D1C761E72
:1001C000F9D270BD1648804716480047FEE7FEE7A3
:1001D000FEE7FEE7FEE7FEE7FEE7FEE7FEE7FEE7F7
:1001E000FEE7FEE7FEE7FEE7FEE7FEE7FEE7FEE7E7
:1001F000FEE7FEE7FEE7FEE7FEE7FEE7FEE7FEE7D7
:10020000FEE7FEE7FEE7FEE7FEE7FEE7FEE7FEE7C6
:10021000FEE7000004480549054A064B7047000008
:100220009D420000C1000000B01B0020B03B002038
:10023000B02B0020B02B002070B5064600F0BAFDB0
:10024000056830460B30C408E400B44201D80020F1
:1002500070BD68682A46002818D00168A14211D3F1
:100260000B46214608318B4208D3436801194B6085
:1002700003681B1B0B605160046001E04168516022
:10028000001D70BD024640680028E6D12146284680
:1002900000F09CFD0028DCD170BD70B50446051F40
:1002A00000F088FD0068002C1AD0446801E0204668
:1002B0006468002C01D0AC42F9D301680A18AA4244
:1002C00004D12A6805468918016000E04560286865
:1002D0004119A14205D16168696021684018286010
:1002E00070BD6C6070BDFEB5054610460C461843E7
:1002F00073D0AE468C460020AD1A01469C4167D3B0
:100300006646002701243D46B61A9D4102D3134696
:100310003A462124654676462F04360C3E432D0C82
:10032000B61A9D4104D3150C1B042B431204103440
:10033000654676462F06360A3E432D0AB61A9D417B
:1003400004D3150E1B022B43120208346546764671
:100350002F0736093E432D09B61A9D4104D3150FC8
:100360001B012B431201241D65467646AF07B608D4
:100370003E43AD08B61A9D4104D3950F9B002B4315
:100380009200A41C65467646EF0776083E436D084A
:10039000B61A9D411AD392185B41641C16E00018EE
:1003A000764665464941B71A9D410191009009D3AF
:1003B0006046B11A98418E468446009801990025FE
:1003C000401C6941DD0752082A435B08641EE6D5DC
:1003D0007246634603B0F0BDFFE700200146C04609
:1003E000C0462A462346F5E70FB41CB5084B06AABB
:1003F0007B4469460090059800F09BFF044600206E
:10040000694600F0A9FF20461CBC08BC04B0184790
:10041000650F000070B5044685690068C10601D506
:10042000302600E02026C00707D070BD6268304645
:10043000A1689047206A401C20626D1EF6D570BDF1
:1004400070B5044685690078C00707D170BD626841
:10045000A16820209047206A401C20626D1EF6D5BE
:1004600070BD70B50C460546012A05D02878800677
:1004700000D5EA69002302E0012305E05B1C9342FA
:1004800002D2E05C0028F9D1A869E618C01AA86178
:10049000286AC01828622846FFF7BCFF04E06A6893
:1004A0002078A968641C9047B442F8D32846FFF727
:1004B000C7FF70BDF7B5002575291068009914A60F
:1004C00011D0C046C046002802DA404211A608E01A
:1004D000009909688A0701D50FA602E0490704D5EB
:1004E0000EA6012501E0C046C046009F0024243727
:1004F00004E000F04DFF30313955641C0028F8D17C
:100500002B4632462146009800F0A9FCFEBD0000B3
:10051000000000002D0000002B0000002000000063
:10052000F3B50446002081B020622046E168884788
:1005300000287DD0252802D06268A16883E0454F5D
:1005400000257F442046E16888472028064608DBCE
:10055000312E06D2B81920380078002801D0054382
:10056000F0E7A80701D5042085430020E061074695
:10057000A0612A2E0AD0304604F03EFE002827D083
:10058000B8000019303E0090866119E00298BA0068
:10059000121902C8916102902046E1688847012F34
:1005A000064617D1E06900281FDA202085431CE0A9
:1005B00000980A2180694843009980193038886181
:1005C0002046E1688847064604F016FE0028EFD171
:1005D000012F0AD02E2E08D12046E1688847064612
:1005E000202005437F1C022FC3DBA069002803DA0B
:1005F0004042A06101200543E80701D01020854357
:10060000002E24D030464138192803D80120C002DA
:1006100005432036204625603146029A1546FFF7ED
:100620007FFD00280CD0012807D0ED1DE80800E070
:100630000DE0C0000830029077E72D1D029574E7A9
:1006400062683046A1689047206A401C6CE7206AC7
:10065000FEBD000036AD0000F8B5042A2CD3830798
:1006600012D00B78491C0370401C521E83070BD01C
:100670000B78491C0370401C521E830704D00B7872
:10068000491C0370401C521E8B079B0F05D0C91AD2
:10069000DF002023DE1B08C90AE0FFF777FDF8BD65
:1006A0001D4608C9FD401C46B4402C4310C0121F13
:1006B000042AF5D2F308C91A521EF0D40B78491C4B
:1006C0000370401C521EEAD40B78491C0370401C76
:1006D000012AE4D409780170F8BD01E004C0091FC3
:1006E0000429FBD28B0701D50280801CC90700D0EA
:1006F0000270704700290BD0C30702D00270401C63
:10070000491E022904D3830702D50280801C891E5A
:10071000E3E70022EEE70022DFE70378C27819461C
:10072000437812061B0219438378C0781B041943CF
:1007300011430902090A000608437047020A0870BB
:100740004A70020C8A70020ECA70704700220309B8
:100750008B422CD3030A8B4211D300239C464EE0DC
:1007600003460B433CD4002243088B4231D3030998
:100770008B421CD3030A8B4201D394463FE0C3094A
:100780008B4201D3CB01C01A524183098B4201D362
:100790008B01C01A524143098B4201D34B01C01A4D
:1007A000524103098B4201D30B01C01A5241C308C5
:1007B0008B4201D3CB00C01A524183088B4201D334
:1007C0008B00C01A524143088B4201D34B00C01A20
:1007D0005241411A00D201465241104670475DE035
:1007E000CA0F00D04942031000D3404253400022B8
:1007F0009C4603098B422DD3030A8B4212D3FC2261
:10080000890112BA030A8B420CD3890192118B42DF
:1008100008D3890192118B4204D389013AD09211F5
:1008200000E08909C3098B4201D3CB01C01A5241B0
:1008300083098B4201D38B01C01A524143098B4279
:1008400001D34B01C01A524103098B4201D30B0162
:10085000C01A5241C3088B4201D3CB00C01A524187
:1008600083088B4201D38B00C01A5241D9D243086E
:100870008B4201D34B00C01A5241411A00D20146AB
:10088000634652415B10104601D34042002B00D515
:100890004942704763465B1000D3404201B50020D7
:1008A000C046C04602BD7047704770470246C80F39
:1008B000C00781434B0030B54B405B009B0D20D0FF
:1008C0001923DB06C91801231B05994220DB0324E9
:1008D000A40704251346AB400BD3002B04D1EB0631
:1008E00013409B00E34204D401246407002312193F
:1008F0005941FF231B0599420BD2C9000143500FF8
:1009000009E0CB0204D501430803024305D00548A2
:1009100030BDFF21C905084330BD08460721090540
:10092000884330BD0000C07FF0B58B4C0F092546D1
:1009300089B0BD437BD01D092646AE43FAD00E4692
:100940005E402740F60F3E43254071D024012142EE
:10095000FBD0FF24AD19A4042D1B039501252D0503
:10096000DB02DB0AC9022B43C90A29431E01090124
:10097000040F130F050121431701880B82039143D4
:100980002D098C46A90B1E438A039543B30B9A038A
:1009900096433F09BA0B9403A74302962E467E4323
:1009A0000497B6464E19D7190C460196544305973D
:1009B0007E43371B7646BF1B3601B646BE0B361943
:1009C00000967646BC043719009C01D3641C009441
:1009D0006400002F01D001263443029E049F75431A
:1009E00066467E430496760034196E0034190094EE
:1009F000029C019E1C196643751BAE460694654613
:100A00004519059C05956C43594375460891691A2B
:100A10000191049E01465143A41B0491611A009C5C
:100A20000791E10605D061090122114302E072E05D
:100A30006EE06109089D00272C0A2D066918049DA7
:100A40007C412A0A2D066918019D6241AC0DAD0258
:100A50006D185441079A910D920255196141029AFD
:100A6000644658435443069B059A5A43121A131B73
:100A70009A0E9B015B187A41010B0005C318514186
:100A8000220A200644195A419A4200D2491C0120E8
:100A90004002814203D315230226F64302E01423C9
:100AA0000326F6432020C51AA9401746AF40DA4076
:100AB0000A4320460399D8400914731819055118A0
:100AC000039A3843D2075140AC4009D001229440E8
:100AD00006D30022401C5141002C01D140084000A7
:100AE0001E4A934212D3012203989206904207DBDA
:100AF0000520400709181A480143C012414004E08C
:100B0000032040070818C10FC907002009B0F0BD35
:100B10000020F107FAE705180C464C4111486D42D8
:100B2000A04115D394181A465A410E486442904188
:100B30000ED301204A004005824209D35A00824266
:100B400006D35940C90F084AC90700201143DDE701
:100B500000200649DAE700000000FF07FE0700005A
:100B6000FFFFFF7F0000E0FF0000F07F0000F87F44
:100B70000121C9050123411842001B06D3185B0E51
:100B80000AD0C1100722D206891840075242D1422A
:100B900001D5520089187047090208D50146002A7C
:100BA00003D0C10FC90700207047104670474202AA
:100BB00002D0002002497047072109050143F4E7EC
:100BC0000000F87FF0B5FF252D04C609C209FF27F4
:100BD00004462E400137CB093E4348402A402B4073
:100BE0000746002A6BD0002B69D0AA4267D0AB42DF
:100BF00065D0002800DA32460125ED0529432C4353
:100C000009022002090AD21A4B0C7F24E31A434C32
:100C1000000A7C44E35C7D242404121914145B0054
:100C2000A218884201D3521C00E0400049420C4601
:100C30005C4324115C43DB016415E318040A5C4344
:100C4000C502200D0C4644436419250A5D43230365
:100C5000EC0C0D46654300030019EB184C42A3420F
:100C600001D35B18401CD4052018002B07D05B0073
:100C7000C91804D3401C002901D1400840003F217D
:100C800089048A4209D3002A08DC1106090F04D01E
:100C9000032149074018C00FC007F0BD01224100E1
:100CA000120689187F2252069142F6D20521490781
:100CB000C84201D59010F0BDFF20C005F0BD002F47
:100CC00000DA32461648AA4207D2AB4205D21902D0
:100CD000090E17D0F80FC007F0BDFF2563002D06E1
:100CE000AB42F9D84900A942F6D8AB4201D1A9429A
:100CF000F2D0A94201D1002101E061004908D005EC
:100D00000843F0BD1102090EFBD0FF200243D005BD
:100D1000F0BD0A460146104654E7000077A60000E1
:100D20000000C07F0102C21504D00123DB07194374
:100D3000002A0ADB9E239A1A02D40846D040704744
:100D4000FF2241001206914201D900207047C017CE
:100D5000C04370471F22030C02D10F2200041CD095
:100D6000030E01D10002083A030F01D10001121F46
:100D7000830F01D18000921E002801DB4000521E2B
:100D8000D2055118021251181922904004D3491C5F
:100D9000002801D14908490008467047C10FC9071A
:100DA00000D04042012292071143D3E70121890775
:100DB000D0E7000000487047541B002000487047EF
:100DC0006C1B0020704770477047704738B5044669
:100DD0000A4600206946C046C046002805D00246A3
:100DE0002046009900F01EFB012038BD10B50120FF
:100DF00000F0E0FE10BDF8B5C046C0460546002034
:100E00000C461020C0460646A819A0420DD932460D
:100E100069460020C046C046070001D100F0CAFE66
:100E20000098A04200D00546C419FFF7C3FFF61D85
:100E300007460560F008C0004619284600F008F88B
:100E4000B44204D031463868A21B00F0EBFAF8BD7A
:100E50000021016041608060704710207047FFB53D
:100E600004460D4681B0243000902168880604D5E0
:100E70001022E0699143216000E00120A84201DDD9
:100E8000471B00E000270498A1697A191018081A76
:100E9000A0612078C00602D42046FFF7BBFA0026E6
:100EA00008E003986268A168805D9047206A401C52
:100EB000761C206204988642F3DB2078C0060AD5AF
:100EC0002046FFF7A7FA06E06268A1683020904745
:100ED000206A401C206238467F1E0028F4DC07E0B0
:100EE00000986268A168405D9047206A401C2062BB
:100EF00028466D1E0028F3DC2046FFF7A1FA207873
:100F0000000602D5022005B0F0BD0120FBE700007D
:100F10007047FFB50C461E468FB003CA0890099172
:100F20004F007D0D00D16D1E002108460020C046F7
:100F30000321099A89050840002A03DA82008018F3
:100F400040080840800D01280A9002DD0020C043BF
:100F50000A90089807430DD0F048F14928184843F3
:100F60000714189800281DD07542291E1DDD0A9807
:100F700042421BE01898012802D00020302104E0F2
:100F80000020F24305E02154401CB042FBDB304618
:100F90000022189B002121540F998B600A60486041
:100FA00013B0F0BDBD1B6D1CDFE70A9A002900DA03
:100FB00069420BA800F0D2FA0BAB07CB03AB07C317
:100FC0000899099800F036FB6B4607C30146D548DF
:100FD0000918002D00910BDDD24903980A9A494265
:100FE0004018002303A90390684600F093FD08E031
:100FF00003990A9A0023081803A90390684600F091
:1010000033FD6B4607C30004000C03D00020C0432F
:10101000410800E01046189A002A03D000220092EE
:1010200015461EE0751E05D400F016FA30326255E2
:101030006D1EF9D501220843079602D000227F1CBD
:1010400004E02078302801D100227F1E002A069774
:1010500087D01EE0112D07DA00F0FEF9303262551C
:101060006D1C02460A43F5D1084303D000980028BE
:1010700019D00EE00021681E05E0235C625C635419
:101080002254401E491C8142F7DBA81B401E0795D5
:101090000690079A18990020A0540F98079B069A6B
:1010A00081600CC07CE711260020189059E7D21D02
:1010B000F0B50D460446D10893B0C90003C90C90A1
:1010C0000D9104F083F802460D98C00F01D02D2039
:1010D00007E02068810701D52B2002E04007C00F00
:1010E0004001032A0F9001D0072A05DB0346294659
:1010F000204600F0EFF90EE12078800601D5E7697F
:1011000000E006272846652D04D0662814D0672DF8
:1011100069D12DE00020112F009001DB112300E0A8
:101120007B1C0CAA03A910A8FFF7F3FE1199002657
:1011300010987D1C0E9142E001203B460CAAC0078E
:101140000B900120009003A910A8FFF7E2FE119D6B
:1011500012981099002600280E9501D1781C0D18C0
:10116000781B02D446427D1C761EE81B00903AE0B4
:10117000012F00DA01270020112F009001DD11233B
:1011800000E03B460CAA03A910A8FFF7C2FE119984
:101190003D46109800260E91217809070BD40E9930
:1011A000A94200DA0D4603A9012D04DD4A19203AAF
:1011B000D27F302A06D0B84201DA011D04DA0121BB
:1011C00000910FE06D1EEFE7002802DC86192D1A52
:1011D00003E0411CA94200DD0D46801B401C00902D
:1011E0000120C0070B902078000705D40098A84282
:1011F00002DB0020C043009069460020C8720B98B3
:10120000012102AF0337C907884225D00220109080
:101210002B2011900B9800280BDA40420B902D20C8
:10122000119006E00B9800F0B3F830317F1E0B9060
:1012300039701099481E00291090F3DC0B98002893
:10124000F0D111987F1E38702088000501D5452007
:1012500000E065207F1E387001A8C01BC01D0B90E8
:101260000F98002800D0012041190098C0170918D4
:101270000B980818A169081A401EA0612078C006C2
:1012800002D42046FFF7C6F80F98002805D0626800
:10129000A1689047206A401C20622078C00625D5AE
:1012A0002046FFF7B7F821E0002E07DB0E98B0428A
:1012B00004DD03A86268805DA16802E06268A1683D
:1012C00030209047206A761C401C20620098401E07
:1012D000002800900AD1FFF771FDC06862680168BC
:1012E000405CA1689047206A401C206228466D1E21
:1012F0000028D9DC07E062683878A1687F1C904735
:10130000206A401C20620B99481E00290B90F2DCD9
:101310002046FFF795F8032042E6000001FCFFFF9E
:10132000104D0000E1DFFFFF01694A1C02610878EF
:10133000704700B58FB002910021059105490193D6
:1013400079440391114604906846FFF7E9F80FB01D
:1013500000BD0000E5FFFFFF0A681070521C0A6024
:10136000704710B54369002B02D0C046C04601E06B
:10137000FFF777F8012010BD1278014624310A707A
:1013800000224A700122ECE711680022D243E8E70C
:1013900001468008081A02091018020A1018020CE7
:1013A0001018C008820012185200891A01E0401C6F
:1013B0000A390A29FBD2704710B5FF231B064400E7
:1013C0009C421DD84C009C421AD80346124A0B433B
:1013D00007D4401A02D3EFF3008010BDEFF3008072
:1013E00010BD081A06D2EFF3008001219043C9070F
:1013F000084302E0EFF30080904380F3008810BDC3
:101400000D231B041A4204D01146002000F01CFCDE
:1014100010BD00F031FC10BD000000900048704786
:101420004C1B002010B50346406801E003464068AD
:10143000002801D08842F9D31868C3188B4206D01F
:10144000CB1CD808C000001D411A521A0146081DC5
:101450000A60FEF722FF10BD0B4670B502468907F1
:101460008008084319469D08141AA9412509080750
:10147000054308092C194841250A01060D43010AB4
:101480002C194141200C0D0428430D0C00194D412D
:10149000002140194D41C00869070843E908840F3D
:1014A0008D002543840024184D4124196D41121BE1
:1014B000AB4107E00925ED432C115219634100248B
:1014C000401C61411C460A250026551BB441F1D23F
:1014D00070BD0000F8B51F46044601230068DB021A
:1014E000032601461840072A05DB002801D017A56E
:1014F00006E017A504E0002801D016A500E016A517
:10150000102081432160A069C01E002FA06101D07E
:10151000401EA0612046FEF77DFF002F09D038460F
:101520006268A1689047206A401C2062C01C20624B
:1015300006E0206AFAE762682878A1686D1C904787
:10154000761EF8D22046FEF77BFFF8BD4E414E00D6
:101550006E616E00494E4600696E6600F7B516462C
:101560008AB0334878446C4603467C33C06F5A686F
:101570009B680DC42E487844763003AC0DC80DC46A
:101580003720C001081837211B30FFF7E9F805465E
:101590000C46803D1B3C02D56442012000E0002047
:1015A0000027099010E0E0070CD00C202049784378
:1015B000794432464C3941186846012300F054FA08
:1015C0006B4607C364107F1C002CECD1184F7F447E
:1015D0002E3F16E0E80712D02001C0190EC8069170
:1015E000089307920068F04201D19819089032469A
:1015F000012306A903A800F037FA03AB07C36D1057
:10160000641C002DE6D10998002806D032466946B0
:10161000012303A800F07EFA05E001233246694663
:1016200003A800F021FA0A9B07C30DB0F0BD00002B
:10163000689D0000034640000A4610B5400D0BD0DF
:101640000121C9070F24A40200191C0364082143C7
:10165000540D2143D20207E000210120F2E7D40F0C
:10166000490021435200401E0029F8DADB0FDB0756
:10167000184310BDFFB50D46144685B04868516843
:1016800003F07EFD00910190A868A16803F078FD49
:1016900002910390A868616803F072FD029A121823
:1016A0008242029201D2012000E00020019A0B1830
:1016B000D2180028019202D08A4202D903E08A425D
:1016C00001D2012000E0002000990818009068680D
:1016D000A16803F055FD029A12188242029201D2CB
:1016E000012000E00020019A0B18D2180028019276
:1016F00002D08A4202D903E08A4201D2012000E0EE
:1017000000200099081800902868216840004900CE
:10171000400849084018FA49471814E00199400068
:10172000C90F08430090019802994000C90F08436F
:101730000190029803994000C90F08430290039852
:1017400040007F1E039000980028E7DA08980028E0
:1017500001D0EC4E00E00026B74201DA012000E0A3
:101760000020002804902AD0F71BF806C00E15D0E0
:10177000029B2021091A039A8B401A430392029A72
:10178000019BC2408B401A430292019A009BC240C7
:101790008B4000991A430192C14000917B110DD0FA
:1017A0006F460320C11A03D500218200B95003E01F
:1017B0008A008100BA587A50401EF3D53746039804
:1017C0000299002800D001200143089802910028C6
:1017D00008460CD0002800D001200199019A490543
:1017E00008430121D20AC902D202019200E001217C
:1017F0000E9B0122D207012B02D0002B03D013E055
:10180000002807D120E0904204D890420CD1019BDF
:101810000B4209D0019B5918019105D10099491C2F
:10182000009101D17F1C009200280DD010210846A4
:101830000020C0460498002806D00F98002803D046
:10184000082108460020C04628682168019B009AAC
:101850004840C10F0598C90739430EC009B0F0BD13
:10186000FFB587B0099A089808995368926840684C
:10187000896896460022039317469446089A126890
:101880005300099A5B081268520052089A1A9E4B3C
:10189000D4180A9A002A01D0352200E0402206928C
:1018A0000022012315460492DB07059324E0002D56
:1018B00005D175460346039E4D1BB34109D37546BA
:1018C0006646039B491B049D9841059B7519AC46D0
:1018D0005F4163463B4308D0059B049EDD077608C5
:1018E0002E435B080496059301E0521E641EC50F4B
:1018F000ED0749184041521C069B9A42D7DB002D48
:1019000004D17546039A6B1A824101D203200CE080
:10191000039A0B466B404240134303D0014303D06C
:10192000012002E0022000E0002061460191002138
:10193000009702910A99002905D0614640020143AF
:10194000704B019102E08007002302909C4201DA73
:10195000012000E0002007003AD01A1BD006C00E7C
:1019600015D0029D2021019C091AC5408C402543B9
:10197000029C8C4000D001242543019C0295009DCF
:10198000C4408D4000992C430194C14000915411F2
:101990001DD06D460221002202290CD10320001B1C
:1019A00007E0002804DB8600AE59002E00D001229B
:1019B000401C0328F5DB081B02D588002A5004E0F0
:1019C0008000285810438A00A850491EE3D51C46C1
:1019D0000A98002802980CD0002800D00120019914
:1019E000019A490508430121D20AC902D202019293
:1019F00000E00121109B0122D207012B02D0002B15
:101A000003D013E0002807D11FE0904204D8904291
:101A10000CD1019B0B4209D0019B5918019105D1B2
:101A20000099491C009101D1641C009200280CD03F
:101A3000102108460020C046002F06D0119800282B
:101A400003D0082108460020C04608980999019A49
:101A5000009B006809684840C10F0798C9072143E7
:101A600082600AC00BB0F0BD00B585B00193009252
:101A70000A460146002302A8FFF7FCFD02A807C89A
:101A800005B000BDFFB50A461F4685B00799019312
:101A900001230091014602A8FFF7ECFD029903988B
:101AA000049ECA0F4900D20700920F2249089202F1
:101AB0008C1A0021002800DB0C46450013486D08F5
:101AC000844214D3079A002A04DA441E0026104DDB
:101AD000F64302E004460D460E461021084600205B
:101AE000C046002F03D0042108460020C046200530
:101AF000E90A0843009908436905F20A1143ADE673
:101B000002C0FFFF013C0000FF3F0000FF07000094
:101B1000FFFFFF7F00B585B0019300920A460146A2
:101B2000002302A8FFF79CFE02A807C8A8E7FFB59C
:101B30000A461F4685B0079901930123009101468B
:101B400002A8FFF78DFE02990398049ECA0F490070
:101B5000D20700920F22490892028C1A0021002815
:101B600000DB0C46450011486D08844214D3079AE7
:101B7000002A04DA441E00260D4DF64302E0044616
:101B80000D460E46102108460020C046002F03D007
:101B9000042108460020C0462005E90A08430099B0
:101BA00008436905F20A114358E60000FF070000E8
:101BB000FFFFFF7F10B500F095F800F08DF810BD25
:101BC000024670B50A4392072AD11E4DEE0104C8A1
:101BD00008C9541B9443344017D0D0B2D9B2401A2C
:101BE0002106014310D190B299B2401A2104014359
:101BF0000AD110021902000A090A401A21020143FF
:101C000002D1100E190E401A70BD9A42DFD010BAE0
:101C100019BA884201D9012070BD0020C04370BDAF
:101C200002780B78401C491C002A09D09A4207D13F
:101C300002780B78401C491C002A01D09A42EFD050
:101C4000D01A70BD01010101C80212D54803400F2E
:101C5000002804D0C803C043012188407047EFF337
:101C600000800001000903210907084380F3008870
:101C7000704700207047000010B5024800F05AF885
:101C800010BD00000000C07F70477546FFF7C6FB1F
:101C9000AE46050069465346C008C000854618B0E8
:101CA00020B5FEF7B7FA60BC00274908B646002603
:101CB000C0C5C0C5C0C5C0C5C0C5C0C5C0C5C0C5FC
:101CC000403D49008D46704710B50446C046C046A9
:101CD0002046FEF755FA10BD10B5002801D000F0DF
:101CE00059F810BD10B5012805D0002103A000F05F
:101CF00057F8012010BD09A1F8E7000053494752E9
:101D0000544D454D3A204F7574206F6620686561CB
:101D100070206D656D6F7279000000003A20486593
:101D20006170206D656D6F727920636F727275706E
:101D30007465640010B50C461107090F092904D019
:101D40000A290AD008290CD104E011460820FFF71F
:101D50007BFF06E0510606D501E0510601D50120C2
:101D6000C007214610BDD10607D501010909CC08DD
:101D70004907000E0006044309E0410F200249070D
:101D8000000A0143200E00061D22D14101430846EE
:101D9000E7E7000001491820ABBEFEE7260002007D
:101DA00070B505460C460A2000E06D1C00F012F8E4
:101DB000002D06D028780028F7D102E0641C00F03E
:101DC00009F8002C02D020780028F7D10A2000F072
:101DD00001F870BD08B5694608700320ABBE08BDA8
:101DE00070B58C180578401C6B075B0F01D1037828
:101DF000401C2A1106D10278401C03E00678401CE2
:101E00000E70491C5B1EF9D12B0705D40023521E0E
:101E10000DD40B70491CFAE70378401CCB1A921CB6
:101E200003E01D780D70491C5B1C521EF9D5A142C0
:101E3000D8D3002070BD7047704770477047704717
:101E400070477047704770477047000070B5034691
:101E50000C460F49002B01D0002C01D1002070BD91
:101E6000002211E0985C414000250AE0C807C00F3D
:101E7000002804D04810074E7040014600E0491089
:101E80006D1C082DF2D3521CA242EBD30846E6E7A4
:101E9000FFFF000001A0000070B50246002012E024
:101EA0001378521C08240BE006465E40F507ED0F40
:101EB0004010002D01D08C2670405B10651EECB2E6
:101EC000002CF1D100BF0B464C1EE1B2002BE7D134
:101ED00070BD7047FEB505460C460322164968469C
:101EE000FEF7BAFB01AA2846009900F024F906463D
:101EF000012C02D1284602F0FAFE022C19D100274B
:101F0000287C1F2806D03F2806D05F2806D07F28CF
:101F100009D106E05E2707E0BC2705E0FF277837F8
:101F200002E0064F00E000BF00BF384604F0A4FB0B
:101F300000BF3046FEBD000038010020EE02000068
:101F400010B504460020607000F088FD606001203C
:101F5000207010BD70B504462078002801D1012002
:101F600070BD606800F04DFE0546002D03D10120D4
:101F700060700020F4E7002060700120F0E70000AE
:101F8000FEB505461448407801900198FEF754F9D3
:101F90000446032210496846FEF75EFB22462846A7
:101FA000009900F0C8F80646002E05D037462046B6
:101FB000FEF773F93846FEBD002006E0411C625C66
:101FC000294608310A54411CC8B20628F6DB2046CF
:101FD000FEF763F90020EEE72C010020F0B589B090
:101FE00005463548407807900798FEF725F90646DC
:101FF0000322314905A8FEF72FFB324628460599F2
:1020000000F099F806900698002807D006980590E9
:102010003046FEF742F9059809B0F0BDB078E87394
:10202000F078A873307928747078040231780C4302
:102030001F20C00227460740002F04D00020C043C5
:10204000001B401C84B2287C1F2806D03F2808D0E3
:102050005F2809D07F280ED10AE0FF20C00004408D
:102060000CE01648044009E01448801C044005E0D8
:102070006405640D02E06405640D00BF00BF2046E6
:10208000FEF794FE0190FEF773FD00220C4B0391C6
:102090000290FEF749FC05910490FEF707FC686189
:1020A000002F04D00749686907F0B4FD6861304625
:1020B000FEF7F3F80020AFE732010020FC07000034
:1020C0000000B03F000080BF7CB5054603220849F0
:1020D0006846FEF7C1FA01AA2846009900F02BF8DD
:1020E0000446002C01D020467CBD0020FCE7000007
:1020F0002F010020F8B505460C4603220A49684620
:10210000FEF7AAFA22462846009900F014F806467F
:10211000002E01D03046F8BD2078E8736078A873AF
:10212000A07828743046F6E73501002070477047E4
:10213000704770477047F7B5044615466078002829
:1021400001D10120FEBD6A461179606800F038FDBA
:102150006A46507900281DD0002706E0FF216068FC
:1021600000F02EFDE855781CC7B268464079B842A9
:10217000F4DC68464079401EC1B22846FFF78CFE69
:10218000064668464079401E295CB14201D00120D4
:10219000D8E70BE0002605E0A95D606800F010FDBF
:1021A000701CC6B268468079B042F5DC0020C9E7F1
:1021B00070B505460C46284602F080FD001970BD3A
:1021C000F8B506460C4615461F4605E02178054839
:1021D00001F02CFA2070641C2846691E8DB200287C
:1021E000F4D1F8BD00000440FFB581B01C4604F0F6
:1021F00069FF00260546002728E009E004F062FF99
:102200000021421BB1410020A21A884100D208E0FF
:102210000198FEF782FA0821009002F057FA002890
:10222000ECD100BF04F04EFF0021421BB141002061
:10223000A21A884100D20CE00198FEF76EFA0090D5
:1022400002F0C4FAC1B20298C1557F1C03988742BC
:10225000D3DB00BF0398874202D1012005B0F0BD57
:102260000020FBE7FFB581B01C4604F02BFF0026E1
:10227000054600273DE009E004F024FF0021421B51
:10228000B1410020A21A884100D208E00198FEF76F
:1022900044FA2021009002F019FA0028ECD100BF86
:1022A00004F010FF0021421BB1410020A21A884116
:1022B00000D221E00198FEF730FA00900298C15D4B
:1022C000009802F087FA09E004F0FCFE0021421BAE
:1022D000B1410020A21A884100D208E00198FEF71F
:1022E0001CFA2021009002F0F1F90028ECD100BF87
:1022F0007F1C03988742BEDB00BF0398874202D150
:10230000012005B0F0BD0020FBE700003EB504460B
:10231000684600F0E6FD032149036846018001217B
:10232000817000210172012181720221417269468E
:10233000134800F047FD684600F0D3FD0121C903B2
:1023400068460180012181700021017201218172A2
:102350000221417269460A4800F034FD0121490317
:10236000074800F0BAFD01218903054800F0B5FDDA
:102370000121C903024800F0B0FD024804703EBDCF
:1023800000000B408B000020F8B504460121C90372
:10239000214800F0A2FD002634E007252DE020783A
:1023A0002841C007C00F002805D0012149031A4861
:1023B00000F095FD04E001214903174800F08DFD70
:1023C00001218903144800F088FD0020009002E0FC
:1023D0000098401C009000980A28F9DB012189032D
:1023E0000D4800F07CFD0020009002E00098401CA9
:1023F000009000980A28F9DB6D1E002DCFDA641CCE
:10240000701CC6B2054800788642C6DB0121C903AC
:10241000014800F064FDF8BD00000B408B00002077
:1024200000BFFEE7F8B506460C461546304600F0FC
:10243000F5F96006010E304600F048F929463046AD
:1024400000F044F9304600F0DAF86000401CC1B2F8
:10245000304600F03BF9304600F023F8074630469E
:1024600000F015FA3846F8BD70B504462046FEF770
:1024700054F90546E079A279000210430146002292
:10248000284600F0E7FB2046FEF747F9054660794D
:1024900022790002104301460022284600F0DAFBB0
:1024A00070BDF8B504462046FEF737F90646607958
:1024B00022790002104301460122304600F0CAFB97
:1024C000002631E06806050E2046FEF726F900904A
:1024D000E079A279000210430146009800F06AFCFE
:1024E000207A00F004FA2046FEF717F90090607990
:1024F0002279000210430146009800F04BFC0028AE
:1025000001D0012005432046FEF707F90090E0794D
:10251000A279000210430146009800F043FC207AA3
:1025200000F0E5F9701CC6B2082ECBDB2046FEF7A2
:10253000F4F80646607922790002104301463046DD
:1025400000F028FC002801D0012000E00020074610
:102550002046FEF7E2F80646607922790002104331
:1025600001460022304600F075FB002F0CD02046BB
:10257000FEF7D3F80646607922790002104301463F
:10258000304600F017FC0BE02046FEF7C6F8064682
:1025900060792279000210430146304600F002FCC7
:1025A000207A00F0A4F92046FEF7B7F80646E07955
:1025B000A279000210430146304600F0FBFB207A6E
:1025C00000F095F92046FEF7A8F80646E079A279D2
:1025D000000210430146304600F0E4FB207A00F090
:1025E00086F92046FEF799F80646607922790002BE
:1025F00010430146304600F0DDFB2846F8BD70B5BB
:1026000004462046FEF789F80546E079A2790002E3
:1026100010430146284600F0C5FB207A00F067F918
:102620002046FEF77AF805466079227900021043C9
:102630000146284600F0BEFB207A00F058F92046FB
:10264000FEF76BF80546E079A279000210430146D7
:10265000284600F0AFFB207A00F049F92046FEF74B
:102660005CF805466079227900021043014628464D
:1026700000F098FB207A00F03AF92046FEF74DF87A
:102680000546E079A279000210430146284600F091
:1026900089FB207A00F02BF970BDF8B507460C468F
:1026A00015461E46384600F0B9F86006010E384659
:1026B00000F00CF82946384600F008F83146384654
:1026C00000F004F8384600F0E2F8F8BDF8B504462A
:1026D0000D4600263EE08020284000280CD02046F1
:1026E000FEF71BF800906079227900021043014642
:1026F000009800F05FFB0BE02046FEF70EF800901C
:1027000060792279000210430146009800F04AFBEC
:10271000207A00F0ECF82046FDF7FFFF0090E0790A
:10272000A279000210430146009800F043FB6806BE
:10273000050E207A00F0DBF82046FDF7EEFF009052
:10274000E079A279000210430146009800F02AFBCC
:10275000701CC6B2082EBEDB207A00F0C8F82046F6
:10276000FDF7DBFF0646607922790002104301463F
:102770000122304600F06EFA2046FDF7CEFF0646F5
:10278000E079A279000210430146304600F012FBC6
:10279000207A00F0ACF82046FDF7BFFF06466079CE
:1027A0002279000210430146304600F0F3FA002877
:1027B00001D0012000E0002007462046FDF7ADFFD4
:1027C0000646E079A279000210430146304600F047
:1027D000E9FA2046FDF7A1FF06466079227900025A
:1027E000104301460022304600F034FA207A00F00F
:1027F0007EF83846F8BD00003EB504460648009015
:1028000002216846C1800121818001720922694646
:102810002046FDF721FF3EBD00800C4070B5044608
:102820002046FDF77AFF0546E079A27900021043C1
:102830000146284600F0BEFA2046FDF76EFF054629
:1028400060792279000210430146284600F0B2FA6E
:10285000207A00F04CF82046FDF75FFF05466079CE
:102860002279000210430146284600F09BFA207AA4
:1028700000F03DF82046FDF750FF0546E079A279CB
:10288000000210430146284600F08CFA70BD70B576
:1028900004462046FDF741FF054660792279000293
:1028A00010430146284600F07DFA207A00F01FF818
:1028B0002046FDF732FF0546E079A2790002104379
:1028C0000146284600F076FA207A00F010F82046FB
:1028D000FDF723FF05466079227900021043014687
:1028E000284600F067FA207A00F001F870BD01E098
:1028F000411E88B20028FBD1704710B50446E0683D
:10290000002801D0E068804710BD000010B50446E3
:1029100004480460006800F033F80248006800F0E2
:102920006BF810BDE001002070B50446002520467C
:1029300002E04068691CCDB20F49884203D00E4ABC
:1029400041689142F5D10C48844213D0082D11DA28
:102950000A4800680068A04207D00848006840683C
:10296000A04202D0204600F00BF8204600F044F8C8
:102970000248046070BD0000C8170020E00100207C
:10298000F8B504461A4801F08DF9002002E06468A9
:10299000411CC8B2174A6168914201D00828F6DB91
:1029A0000025204602E0691CCDB20068114A01688A
:1029B0009142F8D1681CC5B20826AE4201DA08205F
:1029C00000E02846009000270CE0636959791879E7
:1029D0001A68002301F046F80648844200D02468B3
:1029E000781CC7B200988742EFDB00F0FDFEF8BD0F
:1029F00098AB0000C817002070B504462046FFF7CA
:102A0000BFFF0025204602E04068691CCDB20A499C
:102A1000884203D0084A41689142F5D1074801F045
:102A200041F96369597918791A68012301F01AF894
:102A300000F0DAFE70BD0000C817002098AB00005F
:102A40007047704770470000C206D20E01219140C6
:102A5000014A11607047000000E100E010B500F08D
:102A600001F810BD3EB544494448FDF767FE012119
:102A7000402000F0E5FC4048FDF74FFE3F4988420A
:102A800003D10121C80500F0DBFC3B48FDF745FE02
:102A90003B49884203D10121080600F0D1FC002106
:102AA00068468170102101800021C170017141715F
:102AB000012181710021C171012101720321417243
:102AC0000121817269462F4800F07CF90121684696
:102AD0008170082101800021C170017141718171F3
:102AE000C171012101720321417201218172694684
:102AF000244800F067F92048FDF70FFE044601F076
:102B0000CFFD214801F068FE1B48FDF706FE1B497A
:102B1000884203D10121402000F092FC1648FDF7C5
:102B2000FCFD1749884203D10121802000F088FC78
:102B30004B20C00114490860602088800020C880B4
:102B4000088148810320000288810B48FDF7E5FDDC
:102B500004460D4901F0D6FD0748FDF7DEFD0446A9
:102B6000002101F067FD0448FDF7D7FD044601216F
:102B700001F088FD00483EBDFC0A00200000034033
:102B80000080034000800B40EC0A00207CB5054625
:102B90000C46FF21019100210091002C01D1002061
:102BA00001900A23012201A92846FFF75BFB0A23B3
:102BB000012269462846FFF717FB684600787CBD6E
:102BC000F3B583B00D460026002415E028462041C9
:102BD000C707FF0F0020029039460398FFF7D6FF82
:102BE00001900198FF2801D1012002900298A04095
:102BF0003043C6B2601CC4B2082CE7DB304605B0D7
:102C0000F0BD7CB5044643212046FFF7D9FF0025DF
:102C1000F0210191002100914B21C901204601F0D2
:102C2000A1F80A23012201A92046FFF71BFB0A2372
:102C3000012269462046FFF7D7FAE12149022046E2
:102C400001F090F8684601780079814200D10125B1
:102C500028467CBDFEB504460D46164647488442CC
:102C600004D10121480500F0EBFB1EE044488442FA
:102C700004D10121880500F0E3FB16E041488442BD
:102C800004D10121C80500F0DBFB0EE03E48844280
:102C900004D10121080600F0D3FB06E03B48844242
:102CA00003D10121480600F0CBFB002E14D10021F6
:102CB0006846C17001714171012181710021C171AA
:102CC0000172032141720121817281700580694680
:102CD000204600F077F84FE0012E14D1012168461C
:102CE000C1700021017141718171C17101720321B3
:102CF0004172012181720021817005806946204660
:102D000000F060F838E0022E36D101216846C1702B
:102D1000002101710121417100218171C1711748A8
:102D2000844201D1012D08D01548844208D10015F4
:102D3000854202D04000854202D1022069460872D5
:102D40000F48844205D14015854202D103206946CF
:102D5000087203216846417201218172002181704D
:102D600005806946204600F02DF81D200121814094
:102D7000074A116000BF00BFFEBD000000800A408E
:102D800000000B4000800B4000000C4000800C4015
:102D900000E100E070B504460D462946204600F0EB
:102DA00093F870BD70B504460D462946204600F0E4
:102DB00094F870BD70B504460D462946204600F0D3
:102DC0008EF870BDF0B58AB045680995856808959C
:102DD000C568079505690695456905958569049552
:102DE000C56903950022012403250295354D0195FF
:102DF000002500950B8848E0DD07ED0F002D3BD046
:102E0000099DA5438E789640354309950D7A560065
:102E1000B540029F089EBE4335430895079DA543D4
:102E20008E7A964035430795019E069DB543CE7830
:102E300017461037BE4035430E7996403543069508
:102E4000019E059DB5434E79BE4035438E7996402F
:102E5000354305954D7A5600B540029F049EBE430A
:102E600035430495039DA543CE799640354303959C
:102E7000029E009D354300956400029DAD000295C1
:102E8000019D6D000195521C5B08002BB4D10B888D
:102E900045689D4345608668009DAE438660C56871
:102EA0009D43C560069D0561049D8561059D456145
:102EB000039DC561079DC560089D8560099D4560AE
:102EC0000AB0F0BD01000100024613680B40002B60
:102ED00001D0012000E0002070474162704701628C
:102EE00070470021C943018000218170C1700171C8
:102EF00041718171C1710172417281727047002A02
:102F000001D0016200E041627047704770470000E5
:102F10003EB504460D461D48844204D101214805B2
:102F200000F08EFA1EE01A48844204D1012188057F
:102F300000F086FA16E01748844204D10121C80542
:102F400000F07EFA0EE01448844204D10121080604
:102F500000F076FA06E01148844203D101214806C8
:102F600000F06EFA00216846C170017141718171F3
:102F7000C1710172032141720121817200218170AE
:102F8000058069462046FFF71DFF3EBD00800A40D0
:102F900000000B4000800B4000000C4000800C4003
:102FA0000146074A5068002902D00422104303E07A
:102FB000042302469A431046014A506070470000BD
:102FC0000000024010B50246124BD868800880000D
:102FD0000346134318460F4BD86058680F24240249
:102FE0000346A34318460B0218430A4B58605B681C
:102FF00004242340042B0BD1064B586808231843A4
:10300000044B586008240346A3431846014B5860FC
:1030100010BD00000000024038B50020009000BF45
:10302000212000F089F905460098401C00900321FA
:1030300049020098884201D2002DF1D0212000F0F1
:103040007BF9002801D0012400E00024204638BD8F
:1030500001460020064AD068002902D0042210430D
:1030600003E0042302469A431046014AD0607047A9
:10307000000002400146054AD068F02302469A4308
:1030800010460A011043014AD06070470000024018
:103090000146064AD06803231B0202469A431046A3
:1030A00002460A431046014AD060704700000240C1
:1030B00010B51F481F49C8611F48846BA006800EC9
:1030C000242810D008DC002817D009280CD012289A
:1030D0000BD01B281DD109E02D2811D0362810D087
:1030E0003F2816D10EE000BF00BF00BFA00980013D
:1030F0001149886300F0B4F918E000F0B1F915E067
:1031000000BF00BF00F0ACF9A00980010A49886344
:103110000CE0A409A4013F2004430748846300F0A5
:103120009FF9A00980010449886300BF00BF10BD5A
:10313000100000080000024000800D40F0B58BB088
:1031400004467A48C06802210840002801D0784F20
:1031500000E0774F7548C068C007C00F002800D056
:103160007F080A977148C06804210840002809D0E8
:103170006E4840680005000F401C019001990A98B4
:1031800048430A906948C0688005800F002804D031
:10319000012805D0022820D11BE0654820601FE0EF
:1031A0006248C068000908210840002802D10A9836
:1031B00009900BE05D48C0684006400F401C0122AA
:1031C000824011460A98FDF7C1FA099009982060DB
:1031D00006E00120C003206002E05648206000BFE6
:1031E00000BF5248006902210840002802D0504820
:1031F000089001E04E4808904C480069C007C00F95
:10320000002802D00898400808900898079047487E
:10321000006904210840002809D04448406800069D
:10322000000F401C019001990798484307900798A8
:1032300006903E48006910210840002802D00698F8
:1032400040080690069860603848806905090820A3
:103250002840002802D1364803900AE06807400F52
:10326000401C012181400D4629463148FDF76EFA88
:1032700003900398E0602D488569082028400028C5
:1032800002D12B4802900AE06807400F401C012140
:1032900081400D4629462648FDF758FA02900298CB
:1032A0002061224840698007800F002804D001284F
:1032B00004D0022808D104E0059708E0089805909A
:1032C00005E00A98059002E00798059000BF00BF4E
:1032D000164840698006800F002804D0012805D0D8
:1032E000022807D104E00126F60305E0114E03E0B1
:1032F000059E01E0039E00BF00BF0C484069050A1F
:1033000008202840002801D104960AE06807400FF1
:10331000401C012181400D4629463046FDF716FA32
:1033200004900498A0600BB0F0BD000000000240C3
:1033300000127A00409C000010B50146E0230B40CB
:10334000202B02D1074B1A6801E0074BDA6BCC0641
:10335000E40E0123A3401340002B01D0012000E024
:10336000002010BD0000024000800D400D4989681A
:10337000890889000B4A9160012802D002280ED1E9
:1033800006E00849896801221143064A916007E076
:103390000449896803221143024A916000E000BF9A
:1033A00000BF70470000024038B50020009000BF09
:1033B0002220FFF7C1FF05460098401C0090032122
:1033C00049020098884201D2002DF1D02220FFF757
:1033D000B3FF002801D0012400E00024204638BDBE
:1033E00001460020074AD06B002903D00122920534
:1033F000104304E001239B0502469A431046014A0C
:10340000D063704700800D4038B50020009000BFA9
:103410001720FFF791FF05460098401C00900321FC
:1034200049020098884201D2002DF1D01720FFF701
:1034300083FF002801D0012400E00024204638BD8D
:10344000002905D0054AD2690243044BDA6104E041
:10345000024AD2698243014BDA61704700000240A0
:1034600000B50A480A49C8610120FFF7B9FFFFF714
:10347000CBFF00200649C860486088600861486149
:10348000086248628862C862486300BD1000000894
:1034900000000240014800787047000083080020C7
:1034A000F0B5A3B006460F460024022545E0022DE4
:1034B00001D1102000E0102022900020219034E063
:1034C00028462199FEF774FE20907B220021209847
:1034D00001F042FA002824D12723002201A82099D4
:1034E00001F01EFB0198401C002819D0019800280B
:1034F00016D06846807A009000981F2801DD1F20B2
:1035000000906101881902A90331009AFDF7A4F81F
:1035100000216001821900981154601CC4B200BFE0
:1035200000BF2198401CC0B2219022992198884266
:1035300001DABC42C4DB681CC5B2032D01DCBC420D
:10354000B5DB204623B0F0BDF3B581B00C4615487D
:103550000078844201DB0020FEBD102C02DA022537
:10356000264603E0032520461038C6B231462846D9
:10357000FEF71EFE00907B2300220099019801F0C7
:10358000CFFA79210198FEF761FC07460198613076
:10359000417E027E08021043B84201D00020DBE7E2
:1035A0000120D9E781080020F8B500240025002675
:1035B0000FE031460220FEF7FBFD07467B2200218B
:1035C000384601F0C9F9002801D1601CC4B2701C52
:1035D000C6B2102EEDDB00260FE031460320FEF7C9
:1035E000E7FD07467B220021384601F0B5F90028A7
:1035F00001D1681CC5B2701CC6B2102EEDDBAC4206
:1036000005DB0220064908700648047004E0032028
:103610000349087003480570601903490870F8BD34
:1036200080080020810800208308002070B504462F
:103630000D462946204600F07CF800BF10212046A8
:1036400000F057F80028F9D1204600F06EF8C0B21B
:1036500070BD70477047704710B50246154BD86A69
:10366000154B9A4207D193011843000A0002034602
:103670000B4318461AE0114B9A420AD101235B060C
:103680001843FF2424020346A34318460B021843A1
:103690000CE00B4B9A4209D101239B061843FF24EF
:1036A00024040346A34318460B041843014BD86275
:1036B00010BD0000000002400000044000000A406D
:1036C00000800F40002904D0426802231A43426060
:1036D00003E04268014B1A4042607047FDFF000062
:1036E0000021016041600161416141620321016289
:1036F00070470246D3680B40002B01D0012000E048
:103700000020704710B54B8803610B881B028C7931
:103710001B19CC791B190C7A1B194C791A190260E8
:103720004B7A0C791A19426010BD0146886880B244
:1037300070478160704700210171072141710021AC
:10374000C1718171017202214180002101804172A9
:103750007047F0B507460D46384600F0D9FAC6B2B4
:103760000024002D04D0012D04D0022D0ED109E03B
:1037700001240CE08020801BC4B22046E10F091810
:103780004C1004E08020801BC4B200E000BF00BFEA
:103790002046F0BD10B502460878054CA478001B01
:1037A000C3B20348826898001218107810BD000058
:1037B00080130020FCB504460D4616462078019083
:1037C0006778009732462946A01C019B01F000FB58
:1037D000FCBD000010B5012189020248FCF79BFFE7
:1037E00010BD00003C0F002070B500241AE0E1B2CB
:1037F000104A1278002A01D0042200E0002210466C
:1038000000F0FCF802210C48FFF769FB002506E0F8
:10381000E1014919094A505C04F0C6FE6D1C802D77
:10382000F6DB641C082CE2DB20210348FFF757FB82
:1038300070BD0000FB00002000000C403C0F002089
:1038400010B5044620210848FFF747FB002C01D0A3
:10385000AF2100E0AE21084604F09AFE2021024884
:10386000FFF73DFB10BD000000000C40FFB5044613
:103870000E4617461D462078039060780290029805
:10388000019500903A463146A01C039B01F054FB81
:1038900004B0F0BDFFB504460D461746A5420BDD4A
:1038A000264606E039463046039A00F011F8701CAF
:1038B000C6B2AE42F6DD0AE02E4606E03946304694
:1038C000039A00F005F8701CC6B2A642F6DDFFBDF3
:1038D00070B51346802801DA402900DB70BD002B4B
:1038E00020D0012B02D0022B53D136E00A46CC1750
:1038F000640FA418E410284D2D786C432418274D2C
:103900002C5D4E07760F0125B5402C43E5B2CC1750
:10391000640FA418E410204E3678744324181F4E08
:10392000355536E00A46CC17640FA418E4101A4D3A
:103930002D786C432418194D2C5D4E07760F012508
:10394000B540AC43CD176D0FAD18ED10124E367863
:1039500075432D18114E74551BE00A46CC17640FA1
:10396000A418E4100C4D2D786C4324180B4D2C5DDD
:103970004E07760F0125B5406C40E5B2CC17640FB9
:10398000A418E410044E367874432418034E3555B9
:1039900000BF00BF00BFA1E7F40000203C0F0020E3
:1039A000F8B505460C4616461F46802D05DA402C14
:1039B00003DA002E01DD002F00DCF8BDA8198028F5
:1039C00002DD8020401BC6B2E019402802DD402005
:1039D000001BC7B200940AE00098C2B2A819C1B295
:1039E0002846069BFFF756FF0098401C0090E119FF
:1039F00000988142F0DC00BFDFE7000070B50446AC
:103A00000D4620210A48FFF768FAB02129430846ED
:103A100004F0BEFD211110221143084604F0B8FD48
:103A20002007000F04F0B4FDE02004F0B1FD70BDEC
:103A300000000C4010B520210848FFF74EFA002482
:103A400004E00749085D04F0A3FD641C092CF8D3C9
:103A500020210248FFF743FA10BD000000000C408F
:103A6000A8AB0000FFB58FB015461E460F980E900C
:103A700010980D9080200C9040200B900020089012
:103A8000F4E0287808902878D02804D16D1C287894
:103A90001138C0B208902878D12804D16D1C28783C
:103AA0002F30C0B20890744881780898401AC0B28C
:103AB0000990714880680A90099880000A9908184E
:103AC0000A906D4881790A9800780A180E990C9826
:103AD000401A824207DD684801780D98081880B2C4
:103AE0000D900F980E900D990B98401A6249097825
:103AF000884201DA00200D900020079006900E9871
:103B0000C0B207900D98C0B2069000240020059026
:103B10005BE0002452E0022E0AD1059B069AD218DF
:103B2000D1B2079A1219D0B20222FFF7D1FE44E0B7
:103B30000A9800780290C017420F02981018C2101D
:103B40000A9800780390C017430F03981818C01004
:103B5000C3000398C01A01D0012000E00020101813
:103B6000059A50430A9A52888018E217520F121988
:103B7000D2108018404A0494D268105C2746E2179D
:103B8000520F1219D210D200A21A07239B1A012237
:103B90009A401040002803D030460122504000E0F7
:103BA00030460190059A06988018C1B2079800190E
:103BB000C0B20090019AFFF78BFE641C0A9800784F
:103BC000A042A8DC0598401C05902B480178059878
:103BD00081429EDC0A9800780E99401880B20E90BF
:103BE0000E98C0B207900D98C0B20690002731E041
:103BF00000242AE0022E09D1069AD219D1B2079ADE
:103C00001219D0B20222FFF763FE1DE0E017400F49
:103C10000019C010C000201A07231B1A0120984069
:103C2000C007C00F0594002803D030460123584038
:103C300000E0304602460698C019C1B20798001944
:103C4000C0B20490FFF744FE641C0B488079A04288
:103C5000D0DC7F1C08480078B842C9DC064881796E
:103C60000E98081880B20E906D1C00BF28780028AE
:103C700000D006E713B0F0BD8013002010B5044655
:103C800020210748FFF729F9812004F081FCA006D4
:103C9000800E04F07DFC20210148FFF720F910BDC3
:103CA00000000C400178064A1170418851808188DB
:103CB00091808179917181689160C168D16070470C
:103CC0008013002010B5044660B20F49087020210F
:103CD0000E48FFF702F9002C02D0022C0ED106E0AC
:103CE000A02004F055FCC82004F052FC06E0A120FE
:103CF00004F04EFCC02004F04BFC00BF00BF2021AC
:103D00000248FFF7ECF810BDFB00002000000C405B
:103D100038B504460025002000901AE02078009075
:103D20002078D02804D1641C20781138C0B20090CB
:103D30002078D12804D1641C20782F30C0B20090A4
:103D400069463046FFF726FD451904488079451934
:103D5000641C20780028E1D1284638BD801300205B
:103D60007047000070B505460C462846FCF7D5FCA8
:103D70000646002100F086FC2846FCF7CEFC1449DC
:103D8000884203D101214020FFF75AFB2846FCF767
:103D9000C4FC1049884203D101218020FFF750FB69
:103DA0000D4804602846FCF7B8FC06460A4900F0B6
:103DB000A9FC2846FCF7B1FC0646002100F03AFCBD
:103DC0002846FCF7AAFC0646012100F05BFC70BD0A
:103DD0000000034000800340EC0A002010B51148A9
:103DE000C46A11480078030001F0E2F906040509ED
:103DF0000D11151914E0204600F044F910E020469A
:103E000000F018F90CE0204600F010F808E0204619
:103E100000F038F804E0204600F0A4F800E000BF0D
:103E200000BF10BD540A00205008002070B50546A0
:103E30000748046805F02CFA002807D0052001F097
:103E4000F5F904200349087004F0DAFF70BD0000A2
:103E5000580800205008002070B50546074804683F
:103E600005F0B4FA002807D0052001F0DFF904209E
:103E70000349087005F01AF870BD00001009002011
:103E800008090020F8B5074616494A7D0B7D110246
:103E900019430846FCF78AFF04461349FCF792FED3
:103EA000054605F0F5F900281AD00E494A7D0B7D2C
:103EB0001102194308460A21FCF752FC0646FCF79A
:103EC0006DFF04460948C16A204605F0FBFE07D293
:103ED000052001F0ABF905200549087005F03CF814
:103EE000F8BD00000119002000002041540A002004
:103EF00050080020F8B5074616494A7D0B7D11028F
:103F000019430846FCF752FF04461349FCF75AFED2
:103F1000054605F05BFA00281AD00E494A7D0B7D54
:103F20001102194308460A21FCF71AFC0646FCF761
:103F300035FF04460948C16A204605F0C3FE07D292
:103F4000052001F073F905200549087005F060F8B7
:103F5000F8BD00000119002000002041540A002093
:103F60000809002070B5064614494A7D0B7D1102F0
:103F700019430846FCF71AFF04461149FCF722FED4
:103F8000054605F085F9002816D000210D4841703E
:103F9000002407E0012001F049F9642002F06CFBE5
:103FA000601CC4B20A2CF5DB00200749087005200C
:103FB00001F03CF905F0A8FA70BD000001190020DD
:103FC00000002041940A00205008002070B50646E9
:103FD00014494A7D0B7D110219430846FCF7E6FEA1
:103FE00004461149FCF7EEFD054605F0EFF90028FF
:103FF00016D000210D484170002407E0012001F097
:1040000015F9642002F038FB601CC4B20A2CF5DB01
:10401000002007490870052001F008F905F074FA3E
:1040200070BD00000119002000002041940A00200A
:104030000809002010B5044603F048F905F028F9F6
:10404000002807D0052001F0F1F80320024908708C
:1040500004F01AFE10BD00005008002010B5044600
:1040600003F034F905F0B2F9002807D0052001F07B
:10407000DDF803200249087004F064FE10BD000062
:1040800008090020F8B50746174800788100411854
:1040900016480C1861782278090211430846FCF78B
:1040A00085FE06461249FCF78DFD054605F0F0F841
:1040B000002818D00C480078401C0B4908700B48A9
:1040C0001138007C0978884208DC02200949087010
:1040D000052001F0ABF804F0F7FF04E0052001F043
:1040E000A5F804F0E1FCF8BD52080020D11800202A
:1040F0000000204150080020F8B507461748007816
:104100008100411816480C18617822780902114381
:104110000846FCF74BFE06461249FCF753FD0546E0
:1041200005F054F9002818D00C480078401C0B49C1
:1041300008700B481138007C0978884208DC02209E
:1041400009490870052001F071F805F007F804E04E
:10415000052001F06BF804F01FFDF8BD0A090020EE
:10416000D1180020000020410809002010B5114896
:10417000C46A11480078030001F01AF80604050922
:104180000D11151914E02046FFF7B6FF10E0204688
:10419000FFF764FF0CE02046FFF75EFE08E02046D4
:1041A000FFF7A8FE04E02046FFF710FF00E000BF85
:1041B00000BF10BD540A0020080900200120014959
:1041C00008707047500800200120014908707047AE
:1041D0000809002000200249087002490870704751
:1041E00050080020520800200020024908700249AF
:1041F00008707047080900200A0900207047000075
:10420000F8B52248C06802210840022801D1204C9C
:1042100000E01F4C1D48C068C007C00F002800D038
:10422000640825461948C06804210840042807D1BD
:10423000164840680005000F471C2846784305468D
:104240001248C0688005800F002804D0012806D0DD
:10425000022815D10FE00E480E49086014E00B4803
:10426000C0680006000F411C2846FCF76FFA06469E
:1042700008490E6008E00120C0030649086003E019
:1042800005480449086000BF00BFF8BD00000240B7
:1042900000127A0038090020409C0000F8B5102078
:1042A0002949C8610020C860486088600861486189
:1042B0008861086248628862C86248632348C861AE
:1042C00023480090002706E0B80022490958BA00A8
:1042D000009881507F1C102FF6D31D4C641C25467E
:1042E0001D481E4908611E48806B3721090288431A
:1042F00006467D204001A847000207210902084028
:10430000064317488663C06B164908400646F920E5
:104310000001A84700063F210906084006431F2068
:10432000C001A84700041F210904084006430C48A7
:10433000C663002009494860086110200249C8612D
:10434000FFF75EFFF8BD0000000002401800000803
:10435000000010203CB200005155AA8A00800140A4
:1043600000800D40FFFFE0C010B502210E4800F0B4
:10437000F7F8002816D00D480068401C0B4908606B
:104380000B480068401C0A4908600A480068002879
:1043900004D008480068401E06490860022102480F
:1043A00000F088F810BD00000000074080000020E9
:1043B000840000207C00002010B502210F4800F08E
:1043C000CFF8002818D002210C4800F073F80C48F0
:1043D0000078002806D00B480078012148400949A0
:1043E000087002E0002007490870064802780121A1
:1043F00089020548FEF783FD10BD000000800740DC
:104400001C0000208A00002000000B40704770470D
:1044100010B50246224B9A4202D1224B986A01E023
:10442000204B586A204B9A4208D1000A00020346EA
:104430000B43184601231B06184327E01B4B9A42E7
:104440000AD1FF2424020346A34318460B02184353
:1044500001235B06184319E0154B9A4209D1FF244A
:1044600024040346A34318460B041843D3011843FE
:104470000CE00B4B9A4209D1FF2424040346A343CA
:1044800018460B04184301239B061843044B9A4219
:1044900002D1044B986201E0024B586210BD00004B
:1044A00000800940000002400000074000800740F3
:1044B00000000840CA43426570470A46C168002AA6
:1044C00002D00123194301E049084900C160704747
:1044D00030B50C6804604C6844608C6884608C89DA
:1044E000CD892C430D8A2C434D8A2C438D8A2C4335
:1044F0002246C260CC8A24010D8B2C434D8B2C4369
:104500008D8B2C432346036530BD0021C1600160C3
:1045100041608160016241628162C1620163416305
:104520008163C163016641668166C1660161416163
:104530008161C161016741678167C167016441644D
:104540008164C164016541658165C16500228C217A
:104550000A5088210A5084210A5080210A5070474D
:1045600010B50246936D546D1C400C402346002B41
:1045700001D1002000E0012010BD10B51346826D6E
:10458000002B03D014460C43224602E014468C4311
:104590002246826510BD704710B51021204800F0FA
:1045A0009EF800280CD01E4800F010F90446E1B235
:1045B0001C4805F041F91021194800F061F800BFCE
:1045C0002021174800F08BF8002827D016480188D2
:1045D0000088401E82B21448028000290BD0134884
:1045E00002880088401C114B18801148815C0C48DF
:1045F00000F0F0F80EE000222021094800F078F8E1
:1046000002F060FD0849486001210748417201201D
:10461000064908802021024800F032F810BD000051
:1046200000800340441900203C0A0020880000203C
:104630003C09002010B502460E4B986A0E4B9A4278
:1046400008D101231B061843000A000203460B434E
:1046500018460CE0094B9A4209D101235B06184326
:10466000FF2424020346A34318460B021843014BC0
:10467000986210BD0000024000000340008003402B
:1046800041647047002904D0026B01231A4302637E
:1046900003E0026B014B1A4002637047FEFF00000B
:1046A000002101634160016241628162C1621221A5
:1046B0004163002181630449416400218164032135
:1046C0000902016370470000FF070000024693697A
:1046D0000B40002B01D0012000E000207047024673
:1046E000D36B0B408B4201D1012000E000207047CA
:1046F000002A03D0836B0B43836302E0836B8B43FD
:1047000083637047F0B58BB005460C46A0892863DB
:1047100001A8FEF713FD01980A902948876A2948E5
:10472000854209D17A07520F0120904001460A982C
:10473000FCF70CF80A900DE0234885420AD10720C7
:1047400000023840020A0120904001460A98FBF717
:10475000FDFF0A90206881080A98FBF7F7FF089090
:1047600008988209079208988206920E0692079A84
:104770009301069A99180A9A9000FBF7E7FF0990AF
:104780002168099A521AD001FBF7E0FF0646022E73
:1047900003DC0120C043864202DA00200BB0F0BDEA
:1047A000079868620698A862A088E1880843218972
:1047B0000843618908430746EF620120EEE70000E5
:1047C00000000240000003400080034001460868EA
:1047D00080B27047016070474B21C90101606021C0
:1047E00081800021C18001814181032109028181F1
:1047F00070470000002103480180416001720121DF
:10480000417270473C0A00207047000010B501213A
:104810004E48C171642001F02FFFFF2101314C4847
:1048200000F03CFA642001F027FF00F051F9044643
:10483000A0B248494018030000F0BAFC0A474039CA
:10484000322B241D160E064E0A20404920390870CE
:1048500001208002C86144E009203C4920390870E9
:1048600001204002C8613CE0082038492039087026
:104870004001C86135E007203449203908708020A4
:10488000C8612EE006203149203908704020C861F7
:1048900027E005202D49203908702020C86120E03C
:1048A00004202A49203908701020C86119E003202B
:1048B0002649203908700820C86112E002202349E7
:1048C000203908700420C8610BE001201F492039FD
:1048D00008700220C86104E000211C48C17100205A
:1048E00010BD00BFFF200130184920394881000168
:1048F00008610846C069000148610A4652690B46D2
:104900001B695A4310460A465189FBF71FFF0F499E
:104910002039C8600846006900018861084640697E
:1049200009694843800A09492039086200F08EF974
:10493000012000F057F9022000F054F9032000F0A4
:1049400051F900210148C1710120C9E73C1900203B
:1049500000800B40EFBFFFFFF7B588B007460E465B
:1049600002E0012001F088FE5648C0790128F8D005
:1049700001215448C1710A98801952492039498946
:10498000884202D80A98002804D14E48203840892D
:10499000801B0A9035463DE0FF2101314A4800F076
:1049A00083F9484820384089784344190B2000F0A7
:1049B00091F9444820380078092802DB200E00F0E5
:1049C00089F9FF2109042140080C00F083F9FF2137
:1049D00009022140080A00F07DF9E0B200F07AF9FE
:1049E000002000F077F96423202269463748FDF75C
:1049F000E7FBFF210131344800F050F9002006E0C8
:104A00006946095CFF2900D056E0411CC8B2202845
:104A1000F6D320352B4820384089A842BCD82948F5
:104A20002038807A8019C006C00E00283ED0203D74
:104A300037E0FF210131244800F036F921482038C1
:104A40004089784344190B2000F044F91D48203870
:104A50000078092802DB200E00F03CF9FF21090450
:104A60002140080C00F036F9FF2109022140080A14
:104A700000F030F9E0B200F02DF9002000F02AF942
:104A80006423012269461148FDF79AFBFF21013199
:104A90000D4800F003F968460078FF2800D00BE0CD
:104AA0006D1C084820384089A842C2D8002105481A
:104AB000C17101200BB0F0BD00210248C17100207E
:104AC000F8E700003C19002000800B400000044083
:104AD000F8B50024002500260027FF2101310F48EA
:104AE00000F0E2F89F2000F0F5F8A52000F0F2F8C1
:104AF0000546A52000F0EEF80646A52000F0EAF8ED
:104B00000746FF210131054800F0C8F828043102AA
:104B10000843384304462046F8BD000000800B409F
:104B2000F8B507460C4616461D4602E0012001F086
:104B3000A3FD2948C0790128F8D001212648C17178
:104B400020384089A84201D3002D02D122482038C4
:104B500045897019204920394989884203D91E485E
:104B600020384089851B1C482038408960438419BF
:104B7000FF210131194800F097F80B2000F0AAF846
:104B8000154820380078092802DB200E00F0A2F832
:104B9000FF2109042140080C00F09CF8FF210902C4
:104BA0002140080A00F096F8E0B200F093F80020E7
:104BB00000F090F8AAB2642339460948FDF700FBDB
:104BC000FF210131054800F069F8012001F054FD92
:104BD00000210148C171F8BD3C19002000800B4044
:104BE0000000044070B505460024FF21013115483E
:104BF00000F05AF8012D09D1052000F06BF8A5202E
:104C000000F068F804461048047114E0022D09D140
:104C1000352000F05FF8A52000F05CF804460A4853
:104C2000447108E0152000F055F8A52000F052F876
:104C3000044605488471FF210131024800F02EF836
:104C4000204670BD00800B403C19002010B5FF21AC
:104C50000131104800F028F84B2000F03BF8002408
:104C600004E0A52000F036F8601CC4B2042CF8DB88
:104C7000002406E0A52000F02DF807490855601C27
:104C8000C4B2082CF6DBFF210131024800F006F81F
:104C900010BD000000800B401D190020026AFF2398
:104CA00001331A4302627047426AFF2301331A43F9
:104CB0004262704710B504F049FE10BD10B50446BD
:104CC000034A5189126962431046FBF73FFD10BD4C
:104CD0001C19002070B5044621460348FEF7A6FCC7
:104CE0000546284670BD000000000440704770B5BE
:104CF000044601216068FDF749FF054604E00121F3
:104D00006068FDF743FF0546FF2DF8D170BD000038
:104D100000B587B001218020FEF792FB0121C80574
:104D2000FEF78EFB00216846817401218903018210
:104D30000121C17400210175417501218175002196
:104D4000C1750321017641760121817604A91E48AF
:104D5000FEF738F801216846817449030182002179
:104D6000C174017541758175C17503210176417664
:104D70000121817604A91448FEF724F81348FFF7AF
:104D80008FFC00211148FFF755FCE1204002009004
:104D90006021684681800021C18001814181032119
:104DA0000902818169460948FFF7ACFC01210748E7
:104DB000FFF768FC012210210448FFF799FC072047
:104DC000FDF742FE07B000BD00800B4000800340AD
:104DD000FFB584B0481C002803D180260798311AFB
:104DE00007E0002905DA8027079EB81BC60F361892
:104DF0007110002900DA0021802901DA402A02DB43
:104E0000002008B0F0BD07980818802803DD802036
:104E1000401AC0B207900D981018402803DD4020BA
:104E2000801AC0B20D900D9EF01DC617760F361871
:104E30007605360E0296002374E000256DE0002012
:104E40000390DE000D98801B01900198082801DD79
:104E50000820019000245BE00398C007C00F0028E1
:104E600029D0D800801800190090C017460F00986C
:104E70003018C0102E4E36787043401840192D4E11
:104E8000305CDE00B618361977077F0F0126BE406A
:104E90003043C6B2D800801800190090C017470FE1
:104EA00000983818C010224F3F78784340184019B6
:104EB000204F3E5427E0D800801800190090C017FA
:104EC000460F00983018C010194E367870434018BD
:104ED0004019184E305CDE00B618361977077F0F80
:104EE0000126BE40B043DE00B61836190096F6170C
:104EF000770F009EBE19F6100D4F3F787E4376184F
:104F000076190C4FB855039840100390601CC4B23A
:104F100001988442A0DB681CC5B2079885428EDBED
:104F2000581CC3B20298834287DB0798081868E7C9
:104F3000F40000203C0F0020FFB585B00C46089817
:104F40000490601C002803D180260898341A07E0DA
:104F5000002C05DA8027089EB81BC60F361874107F
:104F6000002C00DA0024802C01DA402A02DB002029
:104F700009B0F0BD08982018802803DD8020001BB0
:104F8000C0B208900E981018402803DD4020801A07
:104F9000C0B20E900E9EF01DC617760F361876051D
:104FA000360E02960021DFE00025D7E00498484342
:104FB000059E8019405D0390CE000E98801B0190E5
:104FC0000198082801DD082001900023C0E00F9817
:104FD000002804D0012831D002282ED15AE00398AD
:104FE000C007C00F002828D0C8008018C018009043
:104FF000C017460F00983018C0105F4E36787043C7
:10500000001940195D4E305CCE00B618F6187707CF
:105010007F0F0126BE403043C6B2C8008018C018BA
:105020000090C017470F00983818C010524F3F78B3
:10503000784300194019514F3E5483E00020002866
:1050400027D0C8008018C0180090C017460F0098DD
:105050003018C010484E3678704300194019474E3A
:10506000305CCE00B618F61877077F0F0126BE40D9
:10507000B043CE00B618F6180096F617770F009ECC
:10508000BE19F6103C4F3F787E43361976193B4FD8
:10509000B85557E00398C007C00F002828D0C800B3
:1050A0008018C0180090C017460F00983018C01024
:1050B000314E3678704300194019304E305CCE00C6
:1050C000B618F61877077F0F0126BE40B043CE0012
:1050D000B618F6180096F617770F009EBE19F61050
:1050E000254F3F787E4336197619244FB85528E06E
:1050F000C8008018C0180090C017460F00983018DC
:10510000C0101D4E36787043001940191B4E305C9C
:10511000CE00B618F61877077F0F0126BE40304341
:10512000C6B2C8008018C0180090C017470F00987A
:105130003818C010104F3F787843001940190F4FAE
:105140003E5400BF00BF039840100390581CC3B2E8
:105150000198834200DA3AE7681CC5B20898854294
:1051600000DA23E7481CC1B20298814200DA1BE74B
:1051700008982018FCE60000F40000203C0F0020F6
:10518000F8B5040C8BB2264682B25E4310465843F3
:105190000D0C370C360400218019164679416E43F8
:1051A000370C36048019264679416E438919F8BDBB
:1051B00030B47446641E2578641CAB4204D3635D2E
:1051C0005B00E31830BC18471D46F8E74900CA02E7
:1051D0000243100000D004204A0D01D001221043E8
:1051E000044A490D914201D102210843012800D10E
:1051F00005207047FF07000030380A2801D201203F
:1052000070470020704708B500200D23302201218F
:1052100000900846FEF7C4FB0020312380220F21B6
:105220000090FEF7BDFBFEF7DFFA08BD70B504463F
:1052300000250DE0012008490870C82001F01CFA83
:10524000002005490870C82001F016FA681CC5B294
:10525000A542EFDB70BD00001C00002010B5FFF779
:10526000D2FF0F48C078012807D10E480E4949697E
:10527000086000210A48C1700DE00C480A494969DC
:10528000086001210648C17009480A494969086057
:105290000021034881700448FDF738FB10BD000071
:1052A000940A002034B000008804002041B00000BF
:1052B0001CB00000A004002010B5FFF7A4FF0F48A9
:1052C0008078012807D10E480E49496908600021FD
:1052D0000A4881700DE00C480A49496908600121BB
:1052E0000648817009480A49496908600021034855
:1052F000C1700448FDF70AFB10BD0000940A0020AD
:105300001CB00000A004002027B0000034B0000052
:105310008804002010B5FFF776FF0B4800790028BD
:1053200007D00A480A494969086000210648017106
:1053300006E00848064949690860012102480171F0
:105340000348FDF7E3FA10BD940A002061B00000A5
:10535000B804002050B00000F8B506460C461546CB
:1053600001F0B0FE0021614B0CCB801A99416423FF
:105370000022181A8A4140D201F0A4FE00215B4AA3
:1053800003C22946204601F033FA5949086000203B
:105390000A460090517910790D232022FEF700FB78
:1053A00054480078002807D0514B1A685979187969
:1053B0000123FEF757FB07E04D4B1A68597918791E
:1053C0004D4B1B78FEF74EFB4C480078002805D16A
:1053D000494800780121484047490870474800780B
:1053E000401C46490870052144480078FBF7B8F98D
:1053F000C8B242490870FEF7F7F941480078012821
:1054000004D1FF20F5303F4908800AE03C4800788D
:10541000062803DBFA203B49088002E06420394972
:10542000088001F04FFE0021374B0CCB821A9941C6
:10543000344800880023801A8B4156D201F042FE86
:105440000021314A03C2308804210840002816D0C8
:105450000120284908700C21694360587F21C90543
:1054600004F068FB0C216943605025480078062849
:105470003BDA23480078401C2149087035E0308829
:1054800008210840002816D001201A4908700C2174
:10549000694360587F21C90504F040FC0C21694331
:1054A00060501748007806281FDA15480078401C1D
:1054B0001349087019E030882021084000280FD0D7
:1054C0000C2068432058114948630846416B104836
:1054D00002F0AEF803F016F90E48FDF717FA04E0F3
:1054E00000200749087003490870F8BD1006002025
:1054F000700600202506002020060020210600203E
:10550000240600202206002018060020540A00204D
:10551000B80A002094050020F8B506460C4615464A
:1055200001F0D0FD0021614B0CCB801A994164231E
:105530000022181A8A4140D201F0C4FD00215B4AC2
:1055400003C22946204601F053F95949086000205A
:105550000A460090517910790D232022FEF720FA97
:1055600054480078002807D0514B1A6859791879A7
:105570000123FEF777FA07E04D4B1A68597918793D
:105580004D4B1B78FEF76EFA4C480078002805D189
:105590004948007801214840474908704748007849
:1055A000401C46490870052144480078FBF7D8F8AC
:1055B000C8B242490870FEF717F94148007801283F
:1055C00004D1FF20F5303F4908800AE03C480078CC
:1055D000062803DBFA203B49088002E064203949B1
:1055E000088001F06FFD0021374B0CCB821A9941E6
:1055F000344800880023801A8B4156D201F062FDA6
:105600000021314A03C2308804210840002816D006
:105610000120284908700C21694360587F21C90581
:1056200004F088FA0C216943605025480078062868
:105630003BDA23480078401C2149087035E0308867
:1056400008210840002816D001201A4908700C21B2
:10565000694360587F21C90504F060FB0C21694350
:1056600060501748007806281FDA15480078401C5B
:105670001349087019E030882021084000280FD015
:105680000C2068432058114948630846416B104874
:1056900001F0CEFF03F03EF80E48FDF737F904E0C5
:1056A00000200749087003490870F8BD1008002061
:1056B0007006002025080020200800202108002076
:1056C000240800202208002018080020540A002086
:1056D000B80A002094070020F8B506460C46154687
:1056E0000C206843001980883C2148430C21694301
:1056F000091989794018C117C14A03C201F0E2FCB7
:105700000021C04B0CCB801A994164220023101A4F
:105710008B4140D201F0D6FC0021BA4A03C229468F
:10572000204601F07DF8B849086000200A46009044
:10573000517910790D232022FEF732F9B348007811
:10574000002807D0B04B1A68597918790123FEF761
:1057500089F907E0AC4B1A6859791879AC4B1B787A
:10576000FEF780F9AB480078002805D1A8480078FA
:1057700001214840A6490870A6480078401CA54968
:1057800008700521A3480078FAF7EAFFC8B2A149DA
:105790000870FEF729F8A0480078012804D1FF20FE
:1057A000F5309E4908801BE09B4800785A2803DBAF
:1057B000FC209A49088013E0974800782E2803DBE4
:1057C000FB20964908800BE093480078062803DB0D
:1057D000FA209249088003E07D20C0008F490880AC
:1057E00001F070FC00218E4B0CCB821A99418B4842
:1057F00000880023801A8B4156D201F063FC0021FF
:10580000874A03C230880421084000284DD0012077
:105810007E4908707A480368416882480022181A55
:10582000914103D3501E764A106050607B48008837
:10583000FA2809D17248026840680A230021D21868
:1058400048416F490A60486074480088FB2809D1C4
:105850006B48016840683C230022C9185041684ADF
:10586000116050606D480088FC280BD164480368C3
:1058700040684B21C900002259185041604A11600C
:10588000506008E05E480368406800215A1C4841A7
:105890005B490A604860604800785A2804DA5E482C
:1058A0000078401C5C49087092E03088082108406C
:1058B000002859D0012055490870514806C80A20CF
:1058C0000023081A9A4105D201205449088000207B
:1058D0005149087051480088FA2809D1484803689E
:1058E00040680A2200219A1A8841454B1A60586084
:1058F0004A480088FB2809D14148026840683C2199
:105900000023511A98413E4A116050604348008874
:10591000FC280BD13A48036840684B21C90000229B
:10592000591A9041364A1160506008E034480368C3
:1059300040680022591E9041314A11605060304940
:1059400003C9384B0022181A8A4103D21846002195
:105950002B4A03C2304800785A2839DA2E4800789A
:10596000401C2D49087033E0308820210840002871
:1059700029D03C220023224903C9FAF7B4FC81B2A2
:105980000C206843001981803C2200231C4903C974
:10599000FAF7A9FC0C206843001982710C206843B7
:1059A00000198188204801870C20684300198179FB
:1059B0001D48343081710021C17102F0A3FE1B48E3
:1059C000FCF7A4FFF8BD0020134908700F490870C8
:1059D0003C2200230A4903C9FAF785FC81B20C2056
:1059E0006843001981803C220023054903C9FAF766
:1059F0007AFC0C2068430019827100BFE2E70000C6
:105A00004006002028060020780600203D060020E1
:105A100038060020390600203C0600203A06002007
:105A20003006002024EA0000540A0020AC050020C3
:105A3000F8B506460C4615460C20684300198088C8
:105A40003C2148430C216943091989794018C11741
:105A5000C14A03C201F036FB0021C04B0CCB801AB7
:105A6000994164220023101A8B4140D201F02AFB95
:105A70000021BA4A03C22946204600F0D1FEB849A7
:105A8000086000200A460090517910790D232022E9
:105A9000FDF786FFB3480078002807D0B04B1A689E
:105AA000597918790123FDF7DDFF07E0AC4B1A683F
:105AB00059791879AC4B1B78FDF7D4FFAB480078C7
:105AC000002805D1A848007801214840A64908705F
:105AD000A6480078401CA54908700521A348007815
